:100000000C9464000C948C000C948C000C948C0068
:100010000C948C000C948C000C948C000C94820733
:100020000C948C000C948C000C948C000C94A608FE
:100030000C948C000C948C000C948C000C948C0010
:100040000C945C080C948C000C942A080C94040802
:100050000C948C000C948C000C948C000C948C00F0
:100060000C948C000C948C000000000024002700ED
:100070002A0000000008000201000003040700003D
:1000800000000000000000000000230026002900FE
:10009000010204081020408001020408102001021F
:1000A0000408102000000000250028002B00040494
:1000B0000404040404040202020202020303030310
:1000C0000303020028092F1011241FBECFEFD8E030
:1000D000DEBFCDBF22E0A0E6B1E001C01D92A43D8D
:1000E000B207E1F711E0A0E0B1E0E2E1FAE202C01C
:1000F00005900D92A036B107D9F710E0C3E6D0E025
:1001000004C02197FE010E940413C236D107C9F72B
:100110000E94FB090C94FC140C94000096E0899F4B
:10012000D0011124A35BBD4F90967C936E935F9793
:1001300091E091969C939197E091BA02F091BB0265
:100140009091B902992339F0309751F0811108C08C
:10015000809169020994309719F05C968C91FACFDE
:100160000895CF92DF92EF92FF920F931F9396E044
:10017000899FF0011124E35BFD4F11A2278D30A16F
:100180002130310551F178F02230310509F451C0A8
:100190002330310509F452C01F910F91FF90EF9069
:1001A000DF90CF9008956623B9F361E070E00E947C
:1001B0008E002FB7F8948091940190919501A091B1
:1001C0009601B09197012FBF8093A5029093A6024C
:1001D000A093A702B093A802DFCF9FB7F894C09076
:1001E0009401D0909501E0909601F09097019FBF07
:1001F0000091A5021091A6022091A7023091A802B9
:10020000C01AD10AE20AF30A0091B7021091B802AB
:1002100030E020E00C151D052E053F0550F462E08E
:1002200070E01F910F91FF90EF90DF90CF900C94B2
:100230008E006111B1CF63E070E0F3CF70E060E059
:10024000F0CFAF92BF92CF92DF92EF92FF920F93D7
:100250001F93CF93DF936C017B018B01040F151F5C
:10026000EB015E01AE18BF08C017D10759F06991C4
:10027000D601ED91FC910190F081E02DC601099528
:10028000892B79F7C501DF91CF911F910F91FF90D5
:10029000EF90DF90CF90BF90AF900895FC01538D09
:1002A000448D252F30E0842F90E0821B930B541750
:1002B00010F0CF96089501970895FC01918D828DDD
:1002C000981761F0A28DAE0FBF2FB11D5D968C9176
:1002D000928D9F5F9F73928F90E008958FEF9FEFB5
:1002E0000895FC01918D828D981731F0828DE80F71
:1002F000F11D858D90E008958FEF9FEF0895FC012B
:10030000918D228D892F90E0805C9F4F821B9109F7
:100310008F739927089588E991E00E947F0121E079
:10032000892B09F420E0822F089580E090E0892B4A
:1003300029F00E948B0181110C9400000895FC01AA
:10034000A48DA80FB92FB11DA35ABF4F2C91848D36
:1003500090E001968F739927848FA689B7892C9393
:10036000A089B1898C91837080648C93938D848DE6
:10037000981306C00288F389E02D80818F7D8083E9
:100380000895EF92FF920F931F93CF93DF93EC01A9
:1003900081E0888F9B8D8C8D98131AC0E889F9892C
:1003A000808185FF15C09FB7F894EE89FF8960832F
:1003B000E889F98980818370806480839FBF81E0B0
:1003C00090E0DF91CF911F910F91FF90EF900895F2
:1003D000F62E0B8D10E00F5F1F4F0F731127E02ECD
:1003E0008C8D8E110CC00FB607FCFACFE889F98905
:1003F000808185FFF5CFCE010E949F01F1CFEB8D6B
:10040000EC0FFD2FF11DE35AFF4FF0829FB7F894D8
:100410000B8FEA89FB8980818062CFCFCF93DF93F6
:10042000EC01888D8823B9F0AA89BB89E889F9890C
:100430008C9185FD03C0808186FD0DC00FB607FC41
:10044000F7CF8C9185FFF2CF808185FFEDCFCE0174
:100450000E949F01E9CFDF91CF910895833081F011
:1004600028F4813099F08230A9F008958730A9F0FE
:100470008830C9F08430B1F4809180008F7D03C052
:10048000809180008F7780938000089584B58F7766
:1004900084BD089584B58F7DFBCF8091B0008F77A8
:1004A0008093B00008958091B0008F7DF9CFCF93F5
:1004B000DF93282F30E0F901EE58FF4F8491F901C6
:1004C000E057FF4FD491F901E255FF4FC491CC237F
:1004D000A1F081110E942E02EC2FF0E0EE0FFF1F21
:1004E000EA57FF4FA591B491EC91ED2381E090E0A4
:1004F00009F480E0DF91CF91089580E090E0FACF99
:10050000862F0C9457021F93CF93DF93282F30E050
:10051000F901EE58FF4F8491F901E057FF4FD49154
:10052000F901E255FF4FC491CC23A9F0162F811198
:100530000E942E02EC2FF0E0EE0FFF1FEC55FF4F54
:10054000A591B4918FB7F894EC91111108C0D09592
:10055000DE23DC938FBFDF91CF911F910895DE2BB7
:10056000F8CF862F642F0C948302CF93DF9390E013
:10057000FC01E057FF4F249182559F4FFC0184916D
:100580008823C9F090E0880F991FFC01E859FF4FBC
:10059000A591B491FC01EC55FF4FC591D491611127
:1005A0000DC09FB7F8948C91209582238C938881FD
:1005B000282328839FBFDF91CF910895623051F4A3
:1005C0009FB7F8943C91822F809583238C93E88188
:1005D0002E2BEFCF8FB7F894EC912E2B2C938FBF4F
:1005E000EACF862F642F0C94B5023FB7F894809120
:1005F000610190916201A0916301B091640126B5FF
:10060000A89B05C02F3F19F00196A11DB11D3FBF4A
:10061000BA2FA92F982F8827BC01CD01620F711D19
:10062000811D911D42E0660F771F881F991F4A9513
:10063000D1F708958F929F92AF92BF92CF92DF929F
:10064000EF92FF924B015C010E94F5026B017C016D
:100650000E94F5026C197D098E099F09683E73405E
:1006600081059105A8F321E0821A9108A108B1083B
:1006700088EEC80E83E0D81EE11CF11C81149104A1
:10068000A104B10429F7FF90EF90DF90CF90BF90C5
:10069000AF909F908F900895089590E080E0089526
:1006A000CF93DF93EC0160E08E810E94830261E0D2
:1006B0008E810E94830260E08E810E9483028BE81B
:1006C00091E00197F1F7DF91CF910895CF92DF92FA
:1006D000EF92FF920F931F93CF93DF936C017C01F6
:1006E00087E0E80EF11CD0E0C0E0062F10E0B80172
:1006F0000C2E02C0759567950A94E2F76170F701B8
:1007000081917F010E9483022196C430D10579F73F
:10071000C601DF91CF911F910F91FF90EF90DF9075
:10072000CF900C945003CF92DF92EF92FF920F93F1
:100730001F93CF93DF93EC01F62E642F8C810E94E0
:1007400083028D818F3F19F060E00E9483020F2D9C
:1007500010E08F8584FF25C06E0187E0C80ED11C94
:10076000F12CE12CB8010E2C02C0759567950A9406
:10077000E2F76170F60181916F010E948302FFEF41
:10078000EF1AFF0A88E0E816F10461F7CE01DF9165
:10079000CF911F910F91FF90EF90DF90CF900C942D
:1007A0005003B80184E0759567958A95E1F7CE010D
:1007B0000E9466036F2DCE01DF91CF911F910F91A3
:1007C000FF90EF90DF90CF900C94660340E061E0E3
:1007D00085E392E00E9493038BE39FE10197F1F799
:1007E0000895CF93DF93823029F49091440298606A
:1007F00090934402809348021092490280E48093CF
:100800004A0280E180934B0280E580934C0261E0D4
:10081000809139020E94B50280913A028F3F19F00F
:1008200061E00E94B50261E080913B020E94B50246
:10083000C5E3D2E09E01255332408091440284FDFD
:100840000BC084E090E021962817390744F461E05A
:100850008E810E94B502EECF88E090E0F4CF8BE36A
:100860009DE00197F1F760E0809139020E948302D8
:1008700060E080913B020E94830280913A028F3FA8
:1008800019F060E00E9483026091440264FD3DC063
:1008900063E085E392E00E946603CBE4D6E4CE01F8
:1008A0000197F1F763E085E392E00E9466032197E8
:1008B000F1F763E085E392E00E94660383E592E04E
:1008C0000197F1F762E085E392E00E946603609190
:1008D0004402606240E085E392E00E94930384E07A
:1008E0008093450240E06CE085E392E00E94930330
:1008F0000E94E60382E08093460240E066E085E3E2
:1009000092E0DF91CF910C949303606240E085E325
:1009100092E00E9493038BE496E40197F1F76091D3
:100920004402606240E085E392E00E94930383E525
:1009300092E00197F1F760914402606240E085E344
:1009400092E00E949303C3CF41E00E94930381E0B1
:1009500090E00895FB0101900020E9F73197AF0185
:10096000461B570BDC01ED91FC910280F381E02DD9
:1009700009948F929F92AF92BF92EF92FF920F9342
:100980001F93CF93DF93CDB7DEB7A1970FB6F8943F
:10099000DEBF0FBECDBF7C01FA01CB0119A2223010
:1009A00008F42AE08E010F5D1F4F822E912CB12C8E
:1009B000A12CBF01A50194010E94E212F901CA0114
:1009C0006A300CF5605DD8016E938D01232B242BCA
:1009D000252B79F790E080E0109721F0BD01C70149
:1009E0000E94AA04A1960FB6F894DEBF0FBECDBF39
:1009F000DF91CF911F910F91FF90EF90BF90AF903B
:100A00009F908F900895695CDECFCF92DF92EF9236
:100A1000FF920F931F93CF93DF936B01770FEE0835
:100A2000FF08F7FE1FC0EC01E881F9810190F08119
:100A3000E02D6DE209958C0144275527BA014C1928
:100A40005D096E097F092AE0CE010E94B904800F7A
:100A5000911FDF91CF911F910F91FF90EF90DF9049
:100A6000CF9008952AE0B701A601DF91CF911F91A1
:100A70000F91FF90EF90DF90CF900C94B9044F92BC
:100A80005F926F927F928F929F92AF92BF92CF921E
:100A9000DF92EF92FF920F931F93CF936B017C0134
:100AA000742EAC019B010E94DD1268E471E081119B
:100AB00026C046015701E894B7F82FEF3FEF4FE704
:100AC0005FE7C501B4010E94DD1281110CC02FEF58
:100AD0003FEF4FE75FE7C501B4010E946F106CE480
:100AE00071E0181664F02FEF3FEF4FE75FE4C701A6
:100AF000B6010E94D8121816ACF460E571E088E9DE
:100B000091E0CF911F910F91FF90EF90DF90CF90E8
:100B1000BF90AF909F908F907F906F905F904F901D
:100B20000C94AA042FEF3FEF4FE75FECC701B6012B
:100B30000E946F1087FDE1CF20E030E0A901C701DE
:100B4000B6010E946F1010E000E087FF0AC06DE25E
:100B500088E991E00E94C1018C01F7FAF094F7F85E
:100B6000F094C0E060E070E080E09FE37C1641F02C
:100B700020E030E040E251E40E943712CF5FF6CF30
:100B8000A70196010E94CB112B013C010E94A912E2
:100B90004B015C012AE0BC01A40188E991E00E94BC
:100BA000B9047C01E00EF11ECC23D1F1C501B401E2
:100BB0000E9474109B01AC01C301B2010E94CA11D2
:100BC0004B015C016EE288E991E00E94C101E80EF0
:100BD000F91EC15028F120E030E040E251E4C501A7
:100BE000B4010E94D5102B013C010E94A9124B01B7
:100BF000B12CA12C2AE0B501A40188E991E00E9462
:100C0000B904E80EF91EC501B4010E9474109B01DD
:100C1000AC01C301B2010E94CA114B015C01D9CFE2
:100C2000C701CF911F910F91FF90EF90DF90CF9070
:100C3000BF90AF909F908F907F906F905F904F90FC
:100C400008950C94AA04DF92EF92FF920F931F93E2
:100C5000CF93DF937C018B01EA01D22E0E94E60341
:100C60008AE0E816F10434F464E571E085E392E08B
:100C70000E942106B70185E392E00E94050566E522
:100C800071E085E392E00E9421060A30110534F4F8
:100C900064E571E085E392E00E942106B80185E3F6
:100CA00092E00E94050566E571E085E392E00E940E
:100CB0002106CA30D10534F464E571E085E392E0A1
:100CC0000E942106BE0185E392E00E94050568E5C9
:100CD00071E085E392E00E942106DD2069F041E0A9
:100CE0006AE285E392E0DF91CF911F910F91FF902F
:100CF000EF90DF900C949303DF91CF911F910F91B0
:100D0000FF90EF90DF900895FC0180819181009722
:100D100011F00C94A6130895FC0180819181009735
:100D200011F00C94331060E070E0CB0108950F9344
:100D30001F93CF93DF93EC0188819981009759F03D
:100D40002A813B812617370730F081E0DF91CF9170
:100D50001F910F9108958B016F5F7F4F0E942F1499
:100D6000009759F0998388831B830A832C813D81E6
:100D7000232B59F7FC011082E8CF80E0E7CF0F93D7
:100D80001F93CF93DF9300D0CDB7DEB789831A824C
:100D90000091C0021091C1020F5F1F4FB8018CEB90
:100DA00092E00E9497068823A1F02091BC02309126
:100DB000BD028091C0029091C102BE016F5F7F4F62
:100DC000820F931F0E94F5141093C1020093C0027A
:100DD00081E00F900F90DF91CF911F910F910895B7
:100DE000EF92FF920F931F93CF93DF93EC017B0160
:100DF0008A01BA010E94970628813981811114C0A5
:100E00002115310519F0C9010E94A6131982188213
:100E10001D821C821B821A82CE01DF91CF911F910D
:100E20000F91FF90EF9008951D830C83B701C901C6
:100E30000E94F514F1CFFB0101900020E9F73197F2
:100E4000AF01461B570B0C94F006CF92DF92EF9246
:100E5000FF920F931F93CF93DF93EC016B017A0105
:100E60004617570720F48D2D6A01E62EF82E1982B9
:100E700018821B821A821D821C8250E040E06FE5BE
:100E800071E0CE010E94F0060091C0021091C102F3
:100E9000C016D10600F5E016F10608F48701E091CE
:100EA000BC02F091BD02E00FF11FF0801082609152
:100EB000BC027091BD026C0D7D1D61157105A9F01C
:100EC000CE010E941B078091BC029091BD02080FC9
:100ED000191FF801F082CE01DF91CF911F910F9180
:100EE000FF90EF90DF90CF900895888199810097CF
:100EF00011F00E94A613198218821D821C821B8287
:100F00001A82E1CF1F920F920FB60F9211242F93E6
:100F10003F934F935F936F937F938F939F93AF9381
:100F2000BF93EF93FF9380916A0190916B01A09121
:100F30006C01B0916D01892B8A2B8B2BD1F1909193
:100F40006501E0916601F0916701808189278083C6
:100F500080916A0190916B01A0916C01B0916D013B
:100F6000181619061A061B069CF480916A019091C6
:100F70006B01A0916C01B0916D010197A109B109BC
:100F800080936A0190936B01A0936C01B0936D0103
:100F9000FF91EF91BF91AF919F918F917F916F9151
:100FA0005F914F913F912F910F900FBE0F901F9027
:100FB000189580910001E2ECF0E0E4919FEF9093AE
:100FC0000001E13051F030F0E23069F060E00E9461
:100FD0008302DECF10926E00F9CF90916F009D7F5B
:100FE00090936F00F3CF909170009D7F909370006D
:100FF00091E09093B0009091B100987F94609093AD
:10100000B1001092B300E2CF1F920F920FB60F9271
:1010100011242F933F934F935F936F937F938F93FD
:101020009F93AF93BF93EF93FF9388E991E00E9462
:101030009F01FF91EF91BF91AF919F918F917F9110
:101040006F915F914F913F912F910F900FBE0F9035
:101050001F9018951F920F920FB60F9211242F9385
:101060008F939F93EF93FF93E091A801F091A901D3
:101070008081E091AE01F091AF0182FD1BC09081B3
:101080008091B1018F5F8F732091B201821741F07F
:10109000E091B101F0E0E856FE4F958F8093B101E9
:1010A000FF91EF919F918F912F910F900FBE0F9015
:1010B0001F9018958081F4CF1F920F920FB60F9258
:1010C00011242F933F938F939F93AF93BF9380915E
:1010D000940190919501A0919601B0919701309162
:1010E000600123E0230F2D3758F50196A11DB11D96
:1010F000209360018093940190939501A0939601B1
:10110000B09397018091610190916201A091630178
:10111000B09164010196A11DB11D8093610190936E
:101120006201A0936301B0936401BF91AF919F915D
:101130008F913F912F910F900FBE0F901F90189598
:1011400026E8230F0296A11DB11DD2CF1F920F9248
:101150000FB60F9211242F933F934F935F936F938A
:101160007F938F939F93AF93BF93EF93FF93809160
:101170000101882309F44DC0809180019091810183
:10118000CC9769F480918201909183011092810142
:101190001092800101969093830180938201809147
:1011A000820190918301CC9769F4809184019091A0
:1011B000850110928301109282010196909385011E
:1011C000809384018091840190918501489721F456
:1011D00010928501109284018091770181112AC0BB
:1011E0004091800150918101609182017091830151
:1011F0002091760180918401909185010E942306BF
:10120000809180019091810101969093810180935A
:101210008001FF91EF91BF91AF919F918F917F914D
:101220006F915F914F913F912F910F900FBE0F9053
:101230001F90189540918601509187016091880117
:101240007091890120E080918A0190918B01D6CF25
:1012500010929B0110929A0188EE93E0A0E0B0E01A
:1012600080939C0190939D01A0939E01B0939F0158
:1012700084E291E0909399018093980185EC90E04D
:101280009093A5018093A40184EC90E09093A70132
:101290008093A60180EC90E09093A9018093A8012F
:1012A00081EC90E09093AB018093AA0182EC90E0F6
:1012B0009093AD018093AC0186EC90E09093AF01E8
:1012C0008093AE011092B1011092B2011092B3015D
:1012D0001092B4011092CF021092BD021092BC0283
:1012E0001092BF021092BE021092C1021092C00270
:1012F00050E040E06FE571E08CEB92E00E94F00678
:1013000010924F0210925302109252021092540205
:1013100082E491E090934E0280934D02E9E6F2E080
:1013200085EA92E0108214821382158236968E1717
:101330009F07C1F786E091E09093B0028093AF02DF
:1013400082E091E09093B2028093B10284E08093B6
:10135000B3028093B4028AE091E09093AE0280934E
:10136000AD028AE090E09093B6028093B50284EFDC
:1013700091E09093B8028093B7021092BB02109252
:10138000BA021092A9021092AA021092AB02109215
:10139000AC021092B902109238021092370286E322
:1013A00091E0909336028093350281E18093390277
:1013B0008FEF80933A0280E180933B0291E3909318
:1013C0003C0290E390933D029FE290933E029EE2A6
:1013D00090933F029DE2909340029CE290934102E1
:1013E0009BE2909342029AE29093430280934402DC
:1013F00081E00C94F103CF93DF9300D000D000D0B4
:10140000CDB7DEB7789484B5826084BD84B5816041
:1014100084BD85B5826085BD85B5816085BD8091BF
:101420006E00816080936E00109281008091810037
:10143000826080938100809181008160809381002F
:10144000809180008160809380008091B1008460F1
:101450008093B1008091B00081608093B000809152
:101460007A00846080937A0080917A008260809311
:101470007A0080917A00816080937A0080917A006E
:10148000806880937A001092C100E091A801F091E9
:10149000A90112E01083E091A401F091A50110824E
:1014A000E091A601F091A7018FEC80831092B0012A
:1014B000E091AC01F091AD0186E08083E091AA015A
:1014C000F091AB01808180618083E091AA01F0916D
:1014D000AB01808188608083E091AA01F091AB012B
:1014E000808180688083E091AA01F091AB018081C6
:1014F0008F7D808382E00E94F10361E085E10E949C
:10150000B502F894109280008DE0809381001093D2
:101510006F0084EB96E19093890080938800789423
:1015200022242A94322C10E2412E1EE4512E612CEA
:10153000712C8091CF02882309F0F894E6EAF0E05C
:10154000F490E4ECF0E08491E82FF0E0EE0FFF1F60
:10155000EA57FF4F0591149161E086E10E94B502C0
:1015600060E086E10E94830262E170E080E090E04A
:101570000E941A0361E086E10E94830260E086E136
:101580000E94B50280E293E0D8012C912F2109F44A
:1015900016C10197C9F78091CF02811168C160918E
:1015A000CA026F776093CA021091CC021F77109322
:1015B000CC0270E090E080E00E9474106B017C012E
:1015C000C092C202D092C302E092C402F092C5025D
:1015D000612F70E090E080E00E9474104B015C018C
:1015E0008092C6029092C702A092C802B092C9022D
:1015F000AC019B01609190017091910180919201E9
:10160000909193010E946F1081110FC0A701960164
:1016100060918C0170918D0180918E0190918F016C
:101620000E946F10882309F492C042E0C501B40102
:101630000E943F0542E0C701B6010E943F0560914C
:101640008A0170918B016A3071050CF412C188E92E
:1016500091E00E94050560918801709189016A30CE
:1016600071050CF411C188E991E00E9405056091B3
:101670008601709187016A3071050CF410C188E908
:1016800091E00E94050560918401709185016A30A6
:1016900071050CF40FC188E991E00E940505609185
:1016A0008201709183016A3071050CF40EC188E9E2
:1016B00091E00E94050560918001709181016A307E
:1016C00071050CF40DC188E991E00E940505609157
:1016D0007E0170917F016A3071050CF40CC188E9BC
:1016E00091E00E94050560917C0170917D016A3056
:1016F00071050CF40BC188E991E00E940505609129
:101700007A0170917B016A3071050CF40AC188E995
:1017100091E00E9405056FE571E088E991E00E9483
:10172000AA046DE571E088E991E00E94AA04809224
:10173000900190929101A0929201B0929301C09277
:101740008C01D0928D01E0928E01F0928F0181E0A8
:101750008093B9028FB7F89440919401509195010C
:1017600060919601709197018FBF8091A90290912D
:10177000AA02A091AB02B091AC02481B590B6A0BB4
:101780007B0B8091B5029091B602B0E0A0E0841787
:101790009507A607B70708F007C210E08091B302CB
:1017A000181708F0C9C0E091AF02F091B002E10F44
:1017B000F11D62E080810E94B5021F5FEFCF80E9DA
:1017C00091E0F80120812F2119F40197D1F7E3CEA0
:1017D00080E991E0D8012C912F21A9F10197D1F74F
:1017E000DACE6F2F222309F4D6CED801FC91FF2147
:1017F00039F5662329F1283291F58417950708F405
:10180000AC0160E9862E99249394A12CB12C841A02
:10181000950AA108B10872E0B594A79497948794AB
:101820007A95D1F7369549F4AD2DB0E0AE53BD4F62
:101830001896EC93D394E0E030E8215080E991E0F1
:10184000019779F6A8CED12CE0E030E8912C812CDC
:1018500080E991E040E951E060E028E2C6CFBA01BA
:101860006819790968177907E8F2E32BDBCF7894D8
:1018700096CE64E571E088E991E00E9421066091CE
:101880008A0170918B01E3CE64E571E088E991E013
:101890000E9421066091880170918901E4CE64E57F
:1018A00071E088E991E00E942106609186017091C3
:1018B0008701E5CE64E571E088E991E00E942106A8
:1018C0006091840170918501E6CE64E571E088E95C
:1018D00091E00E9421066091820170918301E7CE20
:1018E00064E571E088E991E00E9421066091800141
:1018F00070918101E8CE64E571E088E991E00E9491
:10190000210660917E0170917F01E9CE64E571E06E
:1019100088E991E00E94210660917C0170917D012F
:10192000EACE64E571E088E991E00E9421066091C9
:101930007A0170917B01EBCE912C8091B4029816C4
:1019400008F063C0E92CF12CE091B102F091B202F1
:10195000EE0DFF1D61E080810E94B502E091B102B1
:10196000F091B202EE0DFF1D60E080810E948302C3
:1019700081E090E0A0E0B0E0092C04C0880F991F3E
:10198000AA1FBB1F0A94D2F75C016C01C094D094CB
:10199000812C8091B302881608F5082D10E0E091A3
:1019A000AF02F091B002E00FF11F80810E94570258
:1019B0000C5F1F4F000F111FF801E35BFD4F892BD8
:1019C00041F4808191818A299B299183808383942A
:1019D000E0CF808191818C219D21F7CFE091B102F0
:1019E000F091B202EE0DFF1D61E080810E94830242
:1019F0008091B1029091B202E80EF91E60E0F70109
:101A000080810E94B502939498CF4DE4E42E42E089
:101A1000F42E89E892E06701D6015F962D913C9102
:101A20009097232B49F45C961C925C975E963C92AF
:101A30002E925D9791961C92B6E0CB0ED11C8C1520
:101A40009D0551F7B12C8091B302B81608F051C032
:101A5000A12C0B2D10E0000F111F0B5A1D4F2091D0
:101A6000B402A21608F043C0F801608171810A2C0B
:101A700002C0769567950A94E2F7B29E9001112410
:101A80002A0D311DEDE4F2E080E0458D568D2417DE
:101A9000350709F4D8C28F5F36968A30B1F760FFF8
:101AA00024C0EDE4F2E090E080E0448D411118C0E4
:101AB000E091AD02F091AE02E20FF31F408156E0DB
:101AC000589FF001599FF00D1124E35BFD4F448FA7
:101AD000368F258F10A2178E61E00E94B10005C0DD
:101AE000019636968A30910501F7A394B8CFB39446
:101AF000AACF80E0D70191969C919111892FB6E0F1
:101B0000EB0EF11CEC14FD04A9F79FB7F89440917B
:101B100094015091950160919601709197019FBF3A
:101B20004093A9025093AA026093AB027093AC0257
:101B30008823D1F180916E028823B1F180916C02EB
:101B400090916D02019781F5F0906902E1E4FE1633
:101B500079F1809179018823C1F0FF2009F4AEC0AA
:101B600080ED8F0D8A3080F58F2D0E94BF060E9478
:101B7000E6034091C0025091C1026091BC02709195
:101B8000BD0285E392E00E94210152E4F51296C065
:101B9000809178019091010121E0922790930101B9
:101BA0008227809378018AC01092B902F12CD1CF9C
:101BB000809179019091010121E092279093010198
:101BC000822780937901C5CFF5E4FF129DC08091F3
:101BD000C0029091C102069708F470C068EC70E0F2
:101BE00080E090E00E941A0342E050E070E060E084
:101BF000CE0101960E942507CE0101960E948C0617
:101C00008B017093850160938401CE0101960E943F
:101C100084060931110534F087E190E09093850145
:101C20008093840144E050E062E070E0CE010196D0
:101C30000E942507CE0101960E948C068B017093AD
:101C4000830160938201CE0101960E9484060C33C9
:101C5000110534F08BE390E090938301809382012F
:101C60004091C0025091C10264E070E0CE01019643
:101C70000E942507CE0101960E948C068B0170936D
:101C8000810160938001CE0101960E9484060C338D
:101C9000110534F08BE390E09093810180938001F3
:101CA0006FE571E08CEB92E00E941B0780910101CF
:101CB00091E0892780930101109279018091780148
:101CC0008823C1F0FF2009F49DC080ED8F0D8A307C
:101CD000F8F48F2D0E94BF060E94E6034091C002D7
:101CE0005091C1026091BC027091BD0285E392E007
:101CF0000E942101A3E4FA12A8C18091770191E02A
:101D00008927809377017EC026E4F2123ECFC8CFA8
:101D100085E4F812CAC08091C0029091C102069772
:101D200008F470C06EE670E080E090E00E941A0354
:101D300042E050E070E060E0CE0101960E9425078D
:101D4000CE0101960E948C068B0170938B016093EB
:101D50008A01CE0101960E9484060931110534F0F2
:101D600087E190E090938B0180938A0144E050E0FA
:101D700062E070E0CE0101960E942507CE01019637
:101D80000E948C068B017093890160938801CE01BB
:101D900001960E9484060C33110534F08BE390E029
:101DA00090938901809388014091C0025091C102B3
:101DB00064E070E0CE0101960E942507CE010196F5
:101DC0000E948C068B017093870160938601CE017F
:101DD00001960E9484060C33110534F08BE390E0E9
:101DE00090938701809386016FE571E08CEB92E020
:101DF0000E941B078091010191E0892780930101D6
:101E000010927801209184013091850180918A019E
:101E100090918B0128173907D9F5209182013091D3
:101E2000830180918801909189012817390781F5F4
:101E300020918001309181018091860190918701EC
:101E40002817390729F580917601882309F18091B7
:101E50000001853171F5E2ECF0E0149117FF59C0F3
:101E6000809186019091870190937B0180937A0104
:101E7000809188019091890190937D0180937C01EC
:101E800080918A0190918B0190937F0180937E01D4
:101E900080E090E0892B09F44CCB0E948B018823D1
:101EA00009F447CB0E94000044CB96E4F91222CFFC
:101EB0009BCF8F3FA9F685E180930001E2ECF0E033
:101EC00014911F3F69F2113009F444C050F01230F0
:101ED00009F45EC017FDC4CF61E085E10E94B50240
:101EE0001FC014BC15BC84B5826084BD85B58160FB
:101EF00085BDE3ECF0E0E491F0E0EE0FFF1FEC5560
:101F0000FF4F85919491E5EAF0E0E491E093690157
:101F100010E061E085E10E94B502112309F45BC085
:101F2000123009F06CC08091B100887F836080938B
:101F3000B10083E68093B30040926A0150926B0136
:101F400060926C0170926D0180917000826080934C
:101F5000700086CF109280001092810080918100E5
:101F600088608093810080918100816080938100EE
:101F7000E3ECF0E0E491F0E0EE0FFF1FEC55FF4FD3
:101F800085919491E5EAF0E0E491E0936801C1CF96
:101F90001092B0001092B1008091B00082608093E6
:101FA000B0008091B10081608093B100E3ECF0E07B
:101FB000E491F0E0EE0FFF1FEC55FF4F85919491F7
:101FC0009093670180936601E5EAF0E0E491E09385
:101FD000650112E09ECF85B5887F836085BD81E372
:101FE00087BD4092720150927301609274017092A9
:101FF000750180916E00826080936E0031CF113048
:10200000D1F480918100887F8160809381008FE787
:102010009CE0909389008093880040926E015092DA
:102020006F01609270017092710180916F00826007
:1020300080936F0015CF123021F0111111CF8FE76F
:10204000CFCF8FE777CF617048CDB4E4FB12DACE03
:102050008091760191E0892780937601D3CE8CEB35
:1020600092E00C9484061F93FC0199278827BC01F9
:10207000E89411911032E9F3193010F01E30C8F3D2
:102080001B3251F01D3249F4689406C00E945A1068
:10209000610F711D811D911D119110531A30B0F304
:1020A0003EF490958095709561957F4F8F4F9F4F2F
:1020B0001F910895592F482F372F262F660F771F0E
:1020C000881F991F660F771F881F991F620F731F44
:1020D000841F951F660F771F881F991F08950E9400
:1020E000B11008F481E00895E89409C097FB3EF42C
:1020F00090958095709561957F4F8F4F9F4F992355
:10210000A9F0F92F96E9BB279395F69587957795D2
:102110006795B795F111F8CFFAF4BB0F11F460FF92
:102120001BC06F5F7F4F8F4F9F4F16C0882311F0EA
:1021300096E911C0772321F09EE8872F762F05C0FE
:10214000662371F096E8862F70E060E02AF09A9599
:10215000660F771F881FDAF7880F9695879597F98E
:102160000895990F0008550FAA0BE0E8FEEF161628
:102170001706E807F907C0F012161306E407F5077B
:1021800098F0621B730B840B950B39F40A2661F0EF
:10219000232B242B252B21F408950A2609F4A14092
:1021A000A6958FEF811D811D08950E94E8100C9463
:1021B00059110E944B1138F00E94521120F09523C2
:1021C00011F00C9442110C94481111240C948D11AF
:1021D0000E946A1170F3959FC1F3950F50E0551F4F
:1021E000629FF001729FBB27F00DB11D639FAA276C
:1021F000F00DB11DAA1F649F6627B00DA11D661FBB
:10220000829F2227B00DA11D621F739FB00DA11DDB
:10221000621F839FA00D611D221F749F3327A00D95
:10222000611D231F849F600D211D822F762F6A2F31
:1022300011249F5750409AF0F1F088234AF0EE0F96
:10224000FF1FBB1F661F771F881F91505040A9F7C3
:102250009E3F510580F00C9442110C948D115F3F0C
:10226000E4F3983ED4F3869577956795B795F795FF
:10227000E7959F5FC1F7FE2B880F911D9695879577
:1022800097F9089597F99F6780E870E060E00895F6
:102290009FEF80EC089500240A941616170618067E
:1022A0000906089500240A9412161306140605065A
:1022B0000895092E0394000C11F4882352F0BB0FEB
:1022C00040F4BF2B11F460FF04C06F5F7F4F8F4F4E
:1022D0009F4F089557FD9058440F551F59F05F3F89
:1022E00071F04795880F97FB991F61F09F3F79F038
:1022F00087950895121613061406551FF2CF4695BA
:10230000F1DF08C0161617061806991FF1CF86953B
:102310007105610508940895E894BB27662777271F
:10232000CB0197F908952F923F924F925F926F924F
:102330007F928F929F92AF92BF92CF92DF92EF9255
:10234000FF920F931F93CF93DF93CDB7DEB7CA1BD6
:10235000DB0B0FB6F894DEBF0FBECDBF09942A8801
:10236000398848885F846E847D848C849B84AA84A9
:10237000B984C884DF80EE80FD800C811B81AA8136
:10238000B981CE0FD11D0FB6F894DEBF0FBECDBF01
:10239000ED0108955058BB27AA270E94E2110C9422
:1023A00059110E944B1138F00E94521120F039F45B
:1023B0009F3F19F426F40C9448110EF4E095E7FBC6
:1023C0000C944211E92F0E946A1158F3BA17620760
:1023D00073078407950720F079F4A6F50C948C1107
:1023E0000EF4E0950B2EBA2FA02D0B01B901900130
:1023F0000C01CA01A0011124FF27591B99F0593F74
:1024000050F4503E68F11A16F040A22F232F342FBB
:102410004427585FF3CF469537952795A795F04009
:102420005395C9F77EF41F16BA0B620B730B840B1E
:10243000BAF09150A1F0FF0FBB1F661F771F881FD6
:10244000C2F70EC0BA0F621F731F841F48F487952E
:1024500077956795B795F7959E3F08F0B0CF939520
:10246000880F08F09927EE0F9795879508950E9499
:102470004B120C9459110E94521158F00E944B11AA
:1024800040F029F45F3F29F00C94421151110C9453
:102490008D110C9448110E946A1168F39923B1F3CD
:1024A000552391F3951B550BBB27AA27621773077A
:1024B000840738F09F5F5F4F220F331F441FAA1F0E
:1024C000A9F335D00E2E3AF0E0E832D091505040CA
:1024D000E695001CCAF72BD0FE2F29D0660F771F78
:1024E000881FBB1F261737074807AB07B0E809F05E
:1024F000BB0B802DBF01FF2793585F4F3AF09E3FE3
:10250000510578F00C9442110C948D115F3FE4F367
:10251000983ED4F3869577956795B795F7959F5F25
:10252000C9F7880F911D9695879597F90895E1E071
:10253000660F771F881FBB1F621773078407BA07D0
:1025400020F0621B730B840BBA0BEE1F88F7E0952B
:1025500008950E94721188F09F5798F0B92F99271B
:10256000B751B0F0E1F0660F771F881F991F1AF07E
:10257000BA95C9F714C0B13091F00E948C11B1E046
:1025800008950C948C11672F782F8827B85F39F045
:10259000B93FCCF3869577956795B395D9F73EF417
:1025A00090958095709561957F4F8F4F9F4F0895BF
:1025B0000E94B11008F48FEF08950E94B110880BAB
:1025C000990B0895A1E21A2EAA1BBB1BFD010DC099
:1025D000AA1FBB1FEE1FFF1FA217B307E407F507D3
:1025E00020F0A21BB30BE40BF50B661F771F881FAF
:1025F000991F1A9469F760957095809590959B0145
:10260000AC01BD01CF010895EE0FFF1F0590F491BD
:10261000E02D09940F931F93CF93DF9382309105A0
:1026200010F482E090E0E091D202F091D30230E029
:1026300020E0B0E0A0E0309799F42115310509F4CD
:102640004AC0281B390B24303105D8F58A819B817B
:102650006115710589F1FB0193838283FE0111C02D
:10266000408151810281138148175907E0F04817D2
:10267000590799F4109761F012960C9312971396DC
:102680001C933296CF01DF91CF911F910F91089546
:102690000093D2021093D302F4CF2115310551F0EB
:1026A0004217530738F0A901DB019A01BD01DF0190
:1026B000F801C1CFEF01F9CF9093D3028093D202FA
:1026C000CDCFFE01E20FF31F819391932250310988
:1026D00039832883D7CF2091D0023091D102232B88
:1026E00041F420911C0130911D013093D1022093BF
:1026F000D00220911A0130911B012115310541F4BE
:102700002DB73EB740911E0150911F01241B350B80
:10271000E091D002F091D102E217F307A0F42E1B52
:102720003F0B2817390778F0AC014E5F5F4F241735
:10273000350748F04E0F5F1F5093D1024093D002EF
:10274000819391939FCFF0E0E0E09CCFCF93DF9314
:102750000097E9F0FC01329713821282A091D20215
:10276000B091D302ED0130E020E01097A1F4208178
:102770003181820F931F2091D0023091D10228170E
:10278000390709F061C0F093D102E093D002DF91E4
:10279000CF910895EA01CE17DF07E8F54A815B8102
:1027A0009E0141155105B1F7E901FB83EA83499187
:1027B0005991C40FD51FEC17FD0761F480819181F9
:1027C0000296840F951FE901998388838281938102
:1027D0009B838A83F0E0E0E012968D919C911397A1
:1027E0000097B9F52D913C911197CD010296820F7A
:1027F000931F2091D0023091D1022817390739F662
:10280000309751F51092D3021092D202B093D102B8
:10281000A093D002BCCFD383C28340815181840F67
:10282000951FC817D90761F44E5F5F4F8881998162
:10283000480F591F518340838A819B8193838283F0
:102840002115310509F0B0CFF093D302E093D20205
:102850009ECFFD01DC01C0CF13821282D7CFB0E042
:10286000A0E0E5E3F4E10C9495118C01009751F49C
:10287000CB010E940A138C01C801CDB7DEB7E0E19D
:102880000C94B111FC01E60FF71F9C012250310995
:10289000E217F30708F49DC0D901CD91DC9111979F
:1028A000C617D70798F0C530D10530F3CE0104978D
:1028B0008617970708F3C61BD70B2297C193D193AE
:1028C0006D937C93CF010E94A613D6CF5B01AC1A07
:1028D000BD0A4C018C0E9D1EA091D202B091D30274
:1028E000512C412CF12CE12C109731F58091D00224
:1028F0009091D1028815990509F05CC046165706DB
:1029000008F058C080911A0190911B01009741F482
:102910008DB79EB740911E0150911F01841B950BEE
:10292000E817F90708F055C0F093D102E093D00200
:10293000F90171836083A0CF8D919C9111971296BC
:102940006C90129713967C901397A815B90559F5BA
:102950006C0142E0C40ED11CCA14DB0420F1AC01AE
:102960004A195B09DA011296159780F06282738228
:1029700051834083D9016D937C93E114F10471F08C
:10298000D7011396FC93EE93129776CF22968C0F75
:102990009D1FF90191838083F301EFCFF093D30260
:1029A000E093D20269CF4816590608F42C017D0144
:1029B000D3019ACFCB010E940A137C01009749F002
:1029C000AE01B8010E94EC14C8010E94A613870151
:1029D00053CF10E000E050CFFB01DC0102C00190BA
:1029E0000D9241505040D8F70895FB01DC01019051
:1029F0000D920020E1F7089510E0C3E6D0E004C096
:102A0000FE010E9404132196C436D107C9F7F89439
:022A1000FFCFF6
:102A1200FF01424344453E3F404131323341343568
:102A2200364237383943463045440000D4028000EC
:102A320000000000C10121014E010E027F015D0173
:102A4200710100000000A40421014D034C030000A9
:102A52000000F102B10280026E616E00696E6600D2
:102A62006F76660030003A0020202020000D0A0018
:00000001FF
