:100000000C9445010C9476010C9476010C947601C5
:100010000C9476010C9476010C9476010C94760184
:100020000C9476010C9476010C9476010C94760174
:100030000C9476010C94D2080C9476010C94760101
:100040000C9476010C941B0A0C9476010C947601A6
:100050000C9476010C9476010C9476010C94D109E1
:100060000C9476010C949B090C9471090C94760104
:100070000C9476010C9476010C9476010C94760124
:100080000C9476010C9476010C9476010C94760114
:100090000C9476010C9476010C9476010C94760104
:1000A0000C9476010C9476010C9476010C947601F4
:1000B0000C9476010C9476010C9476010C947601E4
:1000C0000C9476010C9476010C9476010C947601D4
:1000D0000C9476010C9476010C9476010C947601C4
:1000E0000C9476010C9478030C947C030C94940388
:1000F0000C94F3050C94EE020C9487120C949C045F
:100100000C9400040C94CF030C948A030C94900379
:100110000C946F030C9438020C949D030C945B02B6
:100120000C9440040C9447020C940B020C949E0314
:100130000C94A2030C949B040C94A1020C949803BD
:100140000C9467030C9469020C9472030C94820360
:100150000C945D030C9463030C9486030C946B0362
:100160000C94A10A00002100240027002A002D0081
:100170003000330001010000040107010A01000002
:100180000A0B02090C0D0E08070304010000000011
:10019000000000000000000000000000000000005F
:1001A000000000000000000000001211100000001C
:1001B000000000000000000000000000000000003F
:1001C00000000000000020002300260029002C0071
:1001D0002F003200000100000301060109010102A5
:1001E0001020200808102040102040800201020149
:1001F0000804020101020408102040808040201001
:100200000804020180040201804020100804020159
:1002100008040201010204081020408001020408C1
:100220001020408000002200250028002B002E0016
:100230003100340002010000050108010B01050531
:100240000505070508080808020202020A0A08084C
:10025000040404040101010101010101030303037A
:1002600003030303040707070C0C0C0C0C0C0C0C09
:100270000202020206060606060606060B0B0B0B1A
:100280000B0B0B0B0200A10A871211241FBECFEF2C
:10029000D1E2DEBFCDBF00E00CBF23E0A0E6B2E0BC
:1002A00001C01D92A33EB207E1F712E0A0E0B2E068
:1002B000EAEAFEE200E00BBF02C007900D92A03612
:1002C000B107D9F711E0C4E4D1E000E006C02197FE
:1002D0000109802FFE010E942515C334D10780E05B
:1002E0000807A9F70E94740B0C9443170C940000A4
:1002F00096E0899FD0011124A45ABC4F90967C931C
:100300006E935F9791E091969C939197E091C903CA
:10031000F091CA039091C803992339F0309751F0B6
:10032000811108C0809178031994309719F05C9678
:100330008C91FACF0895CF92DF92EF92FF920F93B4
:100340001F9396E0899FF0011124E45AFC4F11A2FB
:10035000278D30A12130310551F178F0223031055F
:1003600009F451C02330310509F452C01F910F9197
:10037000FF90EF90DF90CF9008956623B9F361E08E
:1003800070E00E9478012FB7F8948091A3029091B9
:10039000A402A091A502B091A6022FBF8093B4033E
:1003A0009093B503A093B603B093B703DFCF9FB785
:1003B000F894C090A302D090A402E090A502F0901F
:1003C000A6029FBF0091B4031091B5032091B6031C
:1003D0003091B703C01AD10AE20AF30A0091C603AA
:1003E0001091C70330E020E00C151D052E053F05D8
:1003F00050F462E070E01F910F91FF90EF90DF905A
:10040000CF900C9478016111B1CF63E070E0F3CF2D
:1004100070E060E0F0CFAF92BF92CF92DF92EF92A8
:10042000FF920F931F93CF93DF936C017B018B019E
:10043000040F151FEB015E01AE18BF08C017D107EE
:1004400059F06991D601ED91FC910190F081E02D78
:10045000C6011995892B79F7C501DF91CF911F91BD
:100460000F91FF90EF90DF90CF90BF90AF900895E5
:10047000FC01538D448D252F30E0842F90E0821BAA
:10048000930B541710F0CF96089501970895FC012F
:10049000918D828D981761F0A28DAE0FBF2FB11D87
:1004A0005D968C91928D9F5F9F73928F90E00895DF
:1004B0008FEF9FEF0895FC01918D828D981731F099
:1004C000828DE80FF11D858D90E008958FEF9FEFED
:1004D0000895FC01918D228D892F90E0805C9F4FC3
:1004E000821B91098F739927089587EA92E00E94F1
:1004F000690221E0892B09F420E0822F0895FC0194
:10050000A48DA80FB92FB11DA35ABF4F2C91848D74
:1005100090E001968F739927848FA689B7892C93D1
:10052000A089B1898C91837080648C93938D848D24
:10053000981306C00288F389E02D80818F7D808327
:100540000895EF92FF920F931F93CF93DF93EC01E7
:1005500081E0888F9B8D8C8D98131AC0E889F9896A
:10056000808185FF15C09FB7F894EE89FF8960836D
:10057000E889F98980818370806480839FBF81E0EE
:1005800090E0DF91CF911F910F91FF90EF90089530
:10059000F62E0B8D10E00F5F1F4F0F731127E02E0B
:1005A0008C8D8E110CC00FB607FCFACFE889F98943
:1005B000808185FFF5CFCE010E947F02F1CFEB8DC8
:1005C000EC0FFD2FF11DE35AFF4FF0829FB7F89417
:1005D0000B8FEA89FB8980818062CFCFCF93DF9335
:1005E000EC01888D8823B9F0AA89BB89E889F9894B
:1005F0008C9185FD03C0808186FD0DC00FB607FC80
:10060000F7CF8C9185FFF2CF808185FFEDCFCE01B2
:100610000E947F02E9CFDF91CF91089580E090E0C2
:10062000892B29F00E94750281110E94000080E050
:1006300090E0892B49F080E090E0892B29F00E941E
:10064000000081110E94000080E090E0892B49F0B9
:1006500080E090E0892B29F00E94000081110E9427
:10066000000080E090E0892B49F080E090E0892B49
:1006700029F00E94000081110C940000089581501F
:10068000823108F05AC0E82FF0E08827E55BFC4F84
:100690008F4F0C9425156B036F035D036303670392
:1006A0009D03720378037C03820386038A0390030D
:1006B00094039D0398039E03A203809180008F778B
:1006C000809380000895809180008F7DF9CF809184
:1006D0008000877FF5CF84B58F7784BD089584B57A
:1006E0008F7DFBCF8091B0008F778093B00008950D
:1006F0008091B0008F7DF9CF809190008F778093AB
:1007000090000895809190008F7DF9CF80919000A6
:10071000877FF5CF8091A0008F778093A000089508
:100720008091A0008F7DF9CF8091A000877FF5CFC9
:10073000809120018F77809320010895809120017E
:100740008F7DF9CF80912001877FF5CFCF93DF9305
:10075000282F30E0F901E258FE4F8491F901E2526E
:10076000FE4FD491F901E25CFD4FC491CC23A1F07E
:1007700081110E943F03EC2FF0E0EE0FFF1FEC53BE
:10078000FE4FA591B491EC91ED2381E090E009F446
:1007900080E0DF91CF91089580E090E0FACF862F3E
:1007A0000C94A6031F93CF93DF93282F30E0F90119
:1007B000E258FE4F8491F901E252FE4FD491F901C3
:1007C000E25CFD4FC491CC23A9F0162F81110E9449
:1007D0003F03EC2FF0E0EE0FFF1FEC5DFD4FA59106
:1007E000B4918FB7F894EC91111108C0D095DE2325
:1007F000DC938FBFDF91CF911F910895DE2BF8CF4F
:10080000862F642F0C94D203CF93DF9390E0FC01EA
:10081000E252FE4F2491825C9D4FFC01849188231B
:10082000C9F090E0880F991FFC01EC59FE4FA5918B
:10083000B491FC01EC5DFD4FC591D49161110DC0E7
:100840009FB7F8948C91209582238C9388812823DC
:1008500028839FBFDF91CF910895623051F49FB7F5
:10086000F8943C91822F809583238C93E8812E2BE2
:10087000EFCF8FB7F894EC912E2B2C938FBFEACF4C
:10088000862F642F0C9404043FB7F8948091610282
:1008900090916202A0916302B091640226B5A89B78
:1008A00005C02F3F19F00196A11DB11D3FBFBA2F02
:1008B000A92F982F8827BC01CD01620F711D811DC2
:1008C000911D42E0660F771F881F991F4A95D1F747
:1008D00008958F929F92AF92BF92CF92DF92EF9244
:1008E000FF924B015C010E9444046B017C010E9459
:1008F00044046C197D098E099F09683E7340810587
:100900009105A8F321E0821A9108A108B10888EEA8
:10091000C80E83E0D81EE11CF11C81149104A104CF
:10092000B10429F7FF90EF90DF90CF90BF90AF9088
:100930009F908F900895089590E080E00895CF9360
:10094000DF93EC0160E08E810E94D20361E08E8132
:100950000E94D20360E08E810E94D2038BE891E076
:100960000197F1F7DF91CF910895CF92DF92EF9247
:10097000FF920F931F93CF93DF936C017C0187E06D
:10098000E80EF11CD0E0C0E0062F10E0B8010C2EFC
:1009900002C0759567950A94E2F76170F70181913D
:1009A0007F010E94D2032196C430D10579F7C60198
:1009B000DF91CF911F910F91FF90EF90DF90CF903B
:1009C0000C949F04CF92DF92EF92FF920F931F93AC
:1009D000CF93DF93EC01F62E642F8C810E94D2031B
:1009E0008D818F3F19F060E00E94D2030F2D10E03F
:1009F0008F8584FF25C06E0187E0C80ED11CF12CC5
:100A0000E12CB8010E2C02C0759567950A94E2F7A7
:100A10006170F60181916F010E94D203FFEFEF1A1E
:100A2000FF0A88E0E816F10461F7CE01DF91CF916B
:100A30001F910F91FF90EF90DF90CF900C949F0447
:100A4000B80184E0759567958A95E1F7CE010E941B
:100A5000B5046F2DCE01DF91CF911F910F91FF90C3
:100A6000EF90DF90CF900C94B50440E061E084E417
:100A700093E00E94E2048BE39FE10197F1F7089570
:100A8000CF93DF93823029F4909153039860909331
:100A90005303809357031092580380E480935903C3
:100AA00080E180935A0380E580935B0361E080914D
:100AB00048030E940404809149038F3F19F061E0CC
:100AC0000E94040461E080914A030E940404C4E48B
:100AD000D3E09E01245433408091530384FD0BC026
:100AE00084E090E021962817390744F461E08E8174
:100AF0000E940404EECF88E090E0F4CF8BE39DE009
:100B00000197F1F760E0809148030E94D20360E012
:100B100080914A030E94D203809149038F3F19F0CC
:100B200060E00E94D2036091530364FD3DC063E026
:100B300084E493E00E94B504CBE4D6E4CE010197AF
:100B4000F1F763E084E493E00E94B5042197F1F7A4
:100B500063E084E493E00E94B50483E592E00197AA
:100B6000F1F762E084E493E00E94B50460915303DE
:100B7000606240E084E493E00E94E20484E08093B9
:100B8000540340E06CE084E493E00E94E2040E949D
:100B9000350582E08093550340E066E084E493E00D
:100BA000DF91CF910C94E204606240E084E493E032
:100BB0000E94E2048BE496E40197F1F760915303FD
:100BC000606240E084E493E00E94E20483E592E006
:100BD0000197F1F760915303606240E084E493E091
:100BE0000E94E204C3CF41E00E94E20481E090E071
:100BF0000895FB0101900020E9F73197AF01461BF2
:100C0000570BDC01ED91FC910280F381E02D1994EA
:100C10008F929F92AF92BF92EF92FF920F931F938A
:100C2000CF93DF93CDB7DEB7A1970FB6F894DEBFB1
:100C30000FBECDBF7C01FA01CB0119A2223008F40E
:100C40002AE08E010F5D1F4F822E912CB12CA12C1A
:100C5000BF01A50194010E940315F901CA016A3080
:100C60000CF5605DD8016E938D01232B242B252B71
:100C700079F790E080E0109721F0BD01C7010E9454
:100C8000F905A1960FB6F894DEBF0FBECDBFDF9178
:100C9000CF911F910F91FF90EF90BF90AF909F90D9
:100CA0008F900895695CDECFCF92DF92EF92FF9232
:100CB0000F931F93CF93DF936B01770FEE08FF081D
:100CC000F7FE1FC0EC01E881F9810190F081E02D71
:100CD0006DE219958C0144275527BA014C195D091D
:100CE0006E097F092AE0CE010E940806800F911F3D
:100CF000DF91CF911F910F91FF90EF90DF90CF90F8
:100D000008952AE0B701A601DF91CF911F910F91BD
:100D1000FF90EF90DF90CF900C9408064F925F9277
:100D20006F927F928F929F92AF92BF92CF92DF92FB
:100D3000EF92FF920F931F93CF936B017C01742E60
:100D4000AC019B010E94FE1468E472E0811126C090
:100D500046015701E894B7F82FEF3FEF4FE75FE701
:100D6000C501B4010E94FE1481110CC02FEF3FEFAA
:100D70004FE75FE7C501B4010E94C7126CE472E05F
:100D8000181664F02FEF3FEF4FE75FE4C701B6019D
:100D90000E94F9141816ACF460E572E087EA92E05C
:100DA000CF911F910F91FF90EF90DF90CF90BF9068
:100DB000AF909F908F907F906F905F904F900C942A
:100DC000F9052FEF3FEF4FE75FECC701B6010E9437
:100DD000C71287FDE1CF20E030E0A901C701B601CD
:100DE0000E94C71210E000E087FF0AC06DE287EAA8
:100DF00092E00E94A1028C01F7FAF094F7F8F094C7
:100E0000C0E060E070E080E09FE37C1641F020E00D
:100E100030E040E251E40E945814CF5FF6CFA701C2
:100E200096010E94EC132B013C010E94CA144B0155
:100E30005C012AE0BC01A40187EA92E00E94080656
:100E40007C01E00EF11ECC23D1F1C501B4010E945A
:100E5000CC129B01AC01C301B2010E94EB134B0108
:100E60005C016EE287EA92E00E94A102E80EF91EA0
:100E7000C15028F120E030E040E251E4C501B40166
:100E80000E942D132B013C010E94CA144B01B12C6E
:100E9000A12C2AE0B501A40187EA92E00E9408068D
:100EA000E80EF91EC501B4010E94CC129B01AC01F1
:100EB000C301B2010E94EB134B015C01D9CFC70102
:100EC000CF911F910F91FF90EF90DF90CF90BF9047
:100ED000AF909F908F907F906F905F904F9008950C
:100EE0000C94F905DF92EF92FF920F931F93CF932B
:100EF000DF937C018B01EA01D22E0E9435058AE046
:100F0000E816F10434F464E572E084E493E00E94AE
:100F10007007B70184E493E00E94540666E572E02E
:100F200084E493E00E9470070A30110534F464E50C
:100F300072E084E493E00E947007B80184E493E0D7
:100F40000E94540666E572E084E493E00E94700714
:100F5000CA30D10534F464E572E084E493E00E9481
:100F60007007BE0184E493E00E94540668E572E0D5
:100F700084E493E00E947007DD2069F041E06AE2BA
:100F800084E493E0DF91CF911F910F91FF90EF9058
:100F9000DF900C94E204DF91CF911F910F91FF90AD
:100FA000EF90DF900895FC0180819181009711F00E
:100FB0000C94C9150895FC0180819181009711F06E
:100FC0000C948B1260E070E0CB0108950F931F9397
:100FD000CF93DF93EC0188819981009759F02A81A2
:100FE0003B812617370730F081E0DF91CF911F91C9
:100FF0000F9108958B016F5F7F4F0E9452160097EB
:1010000059F0998388831B830A832C813D81232B8C
:1010100059F7FC011082E8CF80E0E7CF0F931F93D0
:10102000CF93DF931F921F92CDB7DEB789831A82C9
:101030000091CF031091D0030F5F1F4FB8018BECCD
:1010400093E00E94E6078823A1F02091CB03309122
:10105000CC038091CF039091D003BE016F5F7F4F8F
:10106000820F931F0E943C171093D0030093CF036D
:1010700081E00F900F90DF91CF911F910F91089514
:10108000EF92FF920F931F93CF93DF93EC017B01BD
:101090008A01BA010E94E60728813981811114C0B2
:1010A0002115310519F0C9010E94C915198218824C
:1010B0001D821C821B821A82CE01DF91CF911F916B
:1010C0000F91FF90EF9008951D830C83B701C90124
:1010D0000E943C17F1CFFB0101900020E9F7319706
:1010E000AF01461B570B0C944008CF92DF92EF9252
:1010F000FF920F931F93CF93DF93EC016B017A0163
:101100004617570720F48D2D6A01E62EF82E198216
:1011100018821B821A821D821C8250E040E06FE51B
:1011200072E0CE010E9440080091CF031091D003DD
:10113000C016D10600F5E016F10608F48701E0912B
:10114000CB03F091CC03E00FF11FF080108260918F
:10115000CB037091CC036C0D7D1D61157105A9F059
:10116000CE010E946B088091CB039091CC03080FB5
:10117000191FF801F082CE01DF91CF911F910F91DD
:10118000FF90EF90DF90CF9008958881998100972C
:1011900011F00E94C915198218821D821C821B82BF
:1011A0001A82E1CF1F920F920FB60F9211240BB645
:1011B0000F922F933F934F935F936F937F938F93F0
:1011C0009F93AF93BF93EF93FF9380917902909198
:1011D0007A02A0917B02B0917C02892B8A2B8B2B07
:1011E000E1F190916802E0916902F0916A028081D8
:1011F000892780838091790290917A02A0917B0265
:10120000B0917C02181619061A061B069CF48091F0
:10121000790290917A02A0917B02B0917C020197B1
:10122000A109B1098093790290937A02A0937B027D
:10123000B0937C02FF91EF91BF91AF919F918F91FD
:101240007F916F915F914F913F912F910F900BBEC6
:101250000F900FBE0F901F90189580910002E4E848
:10126000F2E0E4919FEF90930002E230E9F040F465
:10127000EE2389F0E13091F060E00E94D203DACFF2
:10128000E43049F110F1E530B9F7909173009D7F9A
:1012900090937300F1CF10926E00EECF90916F009B
:1012A0009D7F90936F00E8CF909170009D7F909309
:1012B000700091E09093B0009091B100987F94609D
:1012C0009093B1001092B300D7CF909171009D7FA1
:1012D00090937100D1CF909172009D7F9093720096
:1012E000CBCF1F920F920FB60F9211240BB60F9215
:1012F0002F933F934F935F936F937F938F939F931E
:10130000AF93BF93EF93FF9387EA92E00E947F022F
:10131000FF91EF91BF91AF919F918F917F916F91CD
:101320005F914F913F912F910F900BBE0F900FBE89
:101330000F901F9018951F920F920FB60F921124C5
:101340000BB60F922F938F939F93EF93FF93E091A0
:10135000B702F091B8028081E091BD02F091BE0227
:1013600082FD1DC090818091C0028F5F8F7320919C
:10137000C102821741F0E091C002F0E0E955FD4F53
:10138000958F8093C002FF91EF919F918F912F9144
:101390000F900BBE0F900FBE0F901F90189580817D
:1013A000F2CF1F920F920FB60F9211242F933F93FB
:1013B0008F939F93AF93BF938091A3029091A402C8
:1013C000A091A502B091A6023091600223E0230F04
:1013D0002D3758F50196A11DB11D20936002809311
:1013E000A3029093A402A093A502B093A6028091B9
:1013F000610290916202A0916302B0916402019631
:10140000A11DB11D8093610290936202A0936302BB
:10141000B0936402BF91AF919F918F913F912F91B3
:101420000F900FBE0F901F90189526E8230F02967D
:10143000A11DB11DD2CF1F920F920FB60F92112492
:101440000BB60F922F933F934F935F936F937F93BE
:101450008F939F93AF93BF93EF93FF93809101027C
:10146000882309F44DC080918F0290919002CC970F
:1014700069F48091910290919202109290021092E0
:101480008F02019690939202809391028091910233
:1014900090919202CC9769F480919302909194027A
:1014A000109292021092910201969093940280936E
:1014B00093028091930290919402489721F41092A4
:1014C0009402109293028091860281112CC0409167
:1014D0008F0250919002609191027091920220913E
:1014E000850280919302909194020E9472078091EC
:1014F0008F029091900201969093900280938F02B8
:10150000FF91EF91BF91AF919F918F917F916F91DB
:101510005F914F913F912F910F900BBE0F900FBE97
:101520000F901F90189540919502509196026091EE
:1015300097027091980220E08091990290919A020E
:10154000D4CF1092AA021092A90288EE93E0A0E0F4
:10155000B0E08093AB029093AC02A093AD02B09345
:10156000AE0284E292E09093A8028093A70285ECF9
:1015700090E09093B4028093B30284EC90E0909357
:10158000B6028093B50280EC90E09093B80280930D
:10159000B70281EC90E09093BA028093B90282EC9A
:1015A00090E09093BC028093BB0286EC90E0909315
:1015B000BE028093BD021092C0021092C10210922E
:1015C000C2021092C3021092DE031092CC0310925A
:1015D000CB031092CE031092CD031092D003109241
:1015E000CF0350E040E06FE572E08BEC93E00E94A7
:1015F000400810925E0310926203109261031092F1
:10160000630382E492E090935D0380935C03E8E7D8
:10161000F3E084EB93E010821482138215823696F5
:101620008E179F07C1F786E092E09093BF038093E7
:10163000BE0382E092E09093C1038093C00384E0F4
:101640008093C2038093C3038AE092E09093BD032A
:101650008093BC038AE090E09093C5038093C40319
:1016600084EF91E09093C7038093C6031092CA035E
:101670001092C9031092B8031092B9031092BA03E2
:101680001092BB031092C8031092470310924603B6
:1016900086E392E0909345038093440381E1809335
:1016A00048038FEF8093490380E180934A0391E3DD
:1016B00090934B0390E390934C039FE290934D03E0
:1016C0009EE290934E039DE290934F039CE2909391
:1016D00050039BE2909351039AE2909352038093BC
:1016E000530381E00C944005CF93DF9300D000D0EA
:1016F000CDB7DEB7789484B5826084BD84B581604F
:1017000084BD85B5826085BD85B5816085BD8091CC
:101710006E00816080936E00109281008091810044
:10172000826080938100809181008160809381003C
:10173000809180008160809380008091B1008460FE
:101740008093B1008091B00081608093B00080915F
:1017500091008260809391008091910081608093DC
:101760009100809190008160809390008091A10011
:1017700082608093A1008091A10081608093A1008C
:101780008091A00081608093A000809121018260FF
:1017900080932101809121018160809321018091BA
:1017A000200181608093200180917A008460809381
:1017B0007A0080917A00826080937A0080917A002A
:1017C000816080937A0080917A00806880937A00AB
:1017D0001092C100E091B702F091B80212E01083BC
:1017E000E091B302F091B4021082E091B502F09161
:1017F000B6028FEC80831092BF02E091BB02F091A1
:10180000BC0286E08083E091B902F091BA02808147
:1018100080618083E091B902F091BA028081886092
:101820008083E091B902F091BA0280818068808360
:10183000E091B902F091BA0280818F7D808382E0CD
:101840000E94400561E085E10E940404F894109232
:1018500080008DE08093810010936F0084EB96E10F
:101860009093890080938800789422242A94322CC3
:1018700080E2482E8EE4582E612C712C8091DE037C
:10188000882309F0F894E4EFF1E0F490E4E5F2E065
:101890008491E82FF0E0EE0FFF1FEC53FE4F05910F
:1018A000149161E086E10E94040460E086E10E94F8
:1018B000D20362E170E080E090E00E94690461E0A0
:1018C00086E10E94D20360E086E10E94040480E287
:1018D00093E0D8012C912F2109F416C10197C9F783
:1018E0008091DE03811168C16091D9036F776093A5
:1018F000D9031091DB031F771093DB0370E090E0B6
:1019000080E00E94CC126B017C01C092D103D09286
:10191000D203E092D303F092D403612F70E090E001
:1019200080E00E94CC124B015C018092D503909222
:10193000D603A092D703B092D803AC019B0160916B
:101940009F027091A0028091A1029091A2020E9438
:10195000C71281110FC0A701960160919B0270917F
:101960009C0280919D0290919E020E94C712882342
:1019700009F492C042E0C501B4010E948E0642E023
:10198000C701B6010E948E066091990270919A0279
:101990006A3071050CF412C187EA92E00E94540685
:1019A00060919702709198026A3071050CF411C130
:1019B00087EA92E00E945406609195027091960227
:1019C0006A3071050CF410C187EA92E00E94540657
:1019D00060919302709194026A3071050CF40FC10A
:1019E00087EA92E00E9454066091910270919202FF
:1019F0006A3071050CF40EC187EA92E00E94540629
:101A000060918F02709190026A3071050CF40DC1E3
:101A100087EA92E00E94540660918D0270918E02D6
:101A20006A3071050CF40CC187EA92E00E945406FA
:101A300060918B0270918C026A3071050CF40BC1BD
:101A400087EA92E00E9454066091890270918A02AE
:101A50006A3071050CF40AC187EA92E00E945406CC
:101A60006FE572E087EA92E00E94F9056DE572E0A9
:101A700087EA92E00E94F90580929F029092A0026C
:101A8000A092A102B092A202C0929B02D0929C02AC
:101A9000E0929D02F0929E0281E08093C8038FB78E
:101AA000F8944091A3025091A4026091A502709114
:101AB000A6028FBF8091B8039091B903A091BA0399
:101AC000B091BB03481B590B6A0B7B0B8091C4037D
:101AD0009091C503B0E0A0E084179507A607B7076B
:101AE00008F0FDC110E08091C203181708F0C9C0CA
:101AF000E091BE03F091BF03E10FF11D62E0808130
:101B00000E9404041F5FEFCF80E991E0F80120817B
:101B10002F2119F40197D1F7E3CE80E991E0D801A4
:101B20002C912F21A9F10197D1F7DACE6E2F222324
:101B300009F4D6CED801EC91EF2139F5662329F1CD
:101B4000283291F58417950708F4AC01A0E98A2E94
:101B500099249394A12CB12C841A950AA108B10858
:101B6000B2E0B594A79497948794BA95D1F7369537
:101B700049F4AD2DB0E0AF52BC4F1896FC93D3940E
:101B8000F0E030E8215080E991E0019779F6A8CEA5
:101B9000D12CF0E030E8912C812C80E991E040E9F3
:101BA00051E060E028E2C6CFBA01681979096817E8
:101BB0007907E8F2F32BDBCF789496CE64E572E0F8
:101BC00087EA92E00E9470076091990270919A02F0
:101BD000E3CE64E572E087EA92E00E9470076091CC
:101BE000970270919802E4CE64E572E087EA92E091
:101BF0000E9470076091950270919602E5CE64E5AF
:101C000072E087EA92E00E947007609193027091FF
:101C10009402E6CE64E572E087EA92E00E947007E3
:101C20006091910270919202E7CE64E572E087EADA
:101C300092E00E94700760918F0270919002E8CE4E
:101C400064E572E087EA92E00E94700760918D027D
:101C500070918E02E9CE64E572E087EA92E00E941C
:101C6000700760918B0270918C02EACE64E572E09D
:101C700087EA92E00E9470076091890270918A025F
:101C8000EBCE912C8091C303981608F063C0E92C29
:101C9000F12CE091C003F091C103EE0DFF1D61E056
:101CA00080810E940404E091C003F091C103EE0D15
:101CB000FF1D60E080810E94D20381E090E0A0E0FF
:101CC000B0E0092C04C0880F991FAA1FBB1F0A94FB
:101CD000D2F75C016C01C094D094812C8091C20336
:101CE000881608F5082D10E0E091BE03F091BF03BF
:101CF000E00FF11F80810E94A6030C5F1F4F000FB1
:101D0000111FF801E45AFC4F892B41F48081918125
:101D10008A299B29918380838394E0CF808191815C
:101D20008C219D21F7CFE091C003F091C103EE0D0E
:101D3000FF1D61E080810E94D2038091C0039091D9
:101D4000C103E80EF91E60E0F70180810E940404DF
:101D5000939498CF7CE5E72E73E0F72EF701878DFB
:101D600090A1892B21F4148E368E258E11A23696E1
:101D700053E0E839F50799F7D12C8091C203D816C2
:101D800008F051C0C12C0D2D10E0000F111F0C598F
:101D90001C4F2091C303C21608F043C0D8016D91B7
:101DA0007C910C2C02C0769567950A94E2F7D29E3E
:101DB000900111242C0D311DECE5F3E080E0458D00
:101DC000568D2417350709F496C38F5F36968A30EF
:101DD000B1F760FF24C0ECE5F3E090E080E0448DD3
:101DE000411118C0E091BC03F091BD03E20FF31F55
:101DF0004081B6E0B89FF001B99FF00D1124E45A7C
:101E0000FC4F448F368F258F10A2178E61E00E9401
:101E10009B0105C0019636968A30910501F7C3945F
:101E2000B8CFD394AACF80E0F70191A19111892F67
:101E3000F6E0EF0EF11C58E9E51653E0F506A1F7C0
:101E40009FB7F8944091A3025091A4026091A5021B
:101E50007091A6029FBF4093B8035093B90360935B
:101E6000BA037093BB038823D1F180917D0388234B
:101E7000B1F180917B0390917C03019781F5F09003
:101E8000780381E4F81679F1809188028823C1F003
:101E9000FF2009F4AEC080ED8F0D8A3080F58F2DC4
:101EA0000E940E080E9435054091CF035091D00347
:101EB0006091CB037091CC0384E493E00E940B0209
:101EC000B2E4FB1296C0809187029091010221E05A
:101ED0009227909301028227809387028AC01092F2
:101EE000C803F12CD1CF809188029091010221E0AA
:101EF000922790930102822780938802C5CF95E4B0
:101F0000F9129DC08091CF039091D003069708F4F9
:101F100070C068EC70E080E090E00E94690442E0EC
:101F200050E070E060E0CE0101960E947508CE019D
:101F300001960E94DB078B017093940260939302D9
:101F4000CE0101960E94D3070931110534F087E1D3
:101F500090E0909394028093930244E050E062E01A
:101F600070E0CE0101960E947508CE0101960E9494
:101F7000DB078B017093920260939102CE01019670
:101F80000E94D3070C33110534F08BE390E090935B
:101F90009202809391024091CF035091D00364E06C
:101FA00070E0CE0101960E947508CE0101960E9454
:101FB000DB078B017093900260938F02CE01019634
:101FC0000E94D3070C33110534F08BE390E090931B
:101FD000900280938F026FE572E08BEC93E00E9499
:101FE0006B088091010291E0892780930102109291
:101FF0008802809187028823C1F0FF2009F49DC0E8
:1020000080ED8F0D8A30F8F48F2D0E940E080E940B
:1020100035054091CF035091D0036091CB0370916F
:10202000CC0384E493E00E940B0253E4F51265C2F2
:102030008091860291E08927809386027EC0A6E483
:10204000FA123ECFC8CFE5E4FE12C0C08091CF03A4
:102050009091D003069708F470C06EE670E080E0BF
:1020600090E00E94690442E050E070E060E0CE0140
:1020700001960E947508CE0101960E94DB078B0134
:1020800070939A0260939902CE0101960E94D30741
:102090000931110534F087E190E090939A02809322
:1020A000990244E050E062E070E0CE0101960E94A7
:1020B0007508CE0101960E94DB078B017093980290
:1020C00060939702CE0101960E94D3070C3311054D
:1020D00034F08BE390E090939802809397024091C4
:1020E000CF035091D00364E070E0CE0101960E94CE
:1020F0007508CE0101960E94DB078B017093960252
:1021000060939502CE0101960E94D3070C3311050E
:1021100034F08BE390E090939602809395026FE504
:1021200072E08BEC93E00E946B088091010291E0D9
:1021300089278093010210928702209193023091A7
:1021400094028091990290919A0228173907D9F543
:102150002091910230919202809197029091980281
:102160002817390781F520918F02309190028091D4
:102170009502909196022817390729F580918502DA
:10218000882309F180910002853121F5E4E8F2E02D
:10219000149117FF78C080919502909196029093C8
:1021A0008A0280938902809197029091980290937D
:1021B0008C0280938B028091990290919A02909365
:1021C0008E0280938D020E940E0358CBF6E4FF121C
:1021D0002CCFA5CF8F3FF9F685E180930002E4E88C
:1021E000F2E01491812F1F3FB1F2123009F48BC03D
:1021F00060F4112381F1113009F466C087FDCBCF63
:1022000061E085E10E94040445C0143009F4BCC0BB
:1022100008F49BC0153091F7109220011092210113
:10222000809121018860809321018091210181604A
:1022300080932101E3E5F2E0E491F0E0EE0FFF1F6F
:10224000EC5DFD4F85919491E3EFF1E0E491E09333
:10225000650215E018C014BC15BC84B5826084BD4D
:1022600085B5816085BDE3E5F2E0E491F0E0EE0F35
:10227000FF1FEC5DFD4F85919491E3EFF1E0E49158
:10228000E0936C0210E061E085E10E9404041123F8
:1022900009F499C0123009F0AAC08091B100887F7A
:1022A00083608093B10083E68093B300409279020B
:1022B00050927A0260927B0270927C028091700050
:1022C00082608093700067CF10928000109281002E
:1022D000809181008860809381008091810081607D
:1022E00080938100E3E5F2E0E491F0E0EE0FFF1F60
:1022F000EC5DFD4F85919491E3EFF1E0E491E09383
:102300006B0211E0C0CF1092B0001092B10080912A
:10231000B00082608093B0008091B10081608093B2
:10232000B100E3E5F2E0E491F0E0EE0FFF1FEC5DB9
:10233000FD4F8591949190936A0280936902E3EF37
:10234000F1E0E491E09368029ECF10929000109229
:10235000910080919100886080939100809191001C
:10236000816080939100E3E5F2E0E491F0E0EE0F0C
:10237000FF1FEC5DFD4F85919491E3EFF1E0E49157
:10238000E093670213E07FCF1092A0001092A100AB
:102390008091A10088608093A1008091A10081605C
:1023A0008093A100E3E5F2E0E491F0E0EE0FFF1F7F
:1023B000EC5DFD4F85919491E3EFF1E0E491E093C2
:1023C000660214E060CF85B5887F836085BD81E3B8
:1023D00087BD409281025092820260928302709285
:1023E000840280916E00826080936E00D4CE1130A2
:1023F000D1F480918100887F8160809381008FE794
:102400009CE0909389008093880040927D025092D6
:102410007E0260927F027092800280916F008260E3
:1024200080936F00B8CE1330D1F480919100887FF3
:102430008160809391008FE79CE090939900809356
:1024400098004092750250927602609277027092E4
:102450007802809171008260809371009CCE14306C
:10246000D1F48091A100887F81608093A1008FE7E3
:102470009CE09093A9008093A80040927102509232
:102480007202609273027092740280917200826094
:102490008093720080CE1530D1F480912101887F25
:1024A0008160809321018FE79CE0909329018093C4
:1024B000280140926D0250926E0260926F027092FB
:1024C00070028091730082608093730064CE12303A
:1024D00081F034F4112359F0113009F490CF5BCE20
:1024E000143029F20CF4A7CF1530E9F254CE8FE75F
:1024F0006FCF8FE7D9CE61708ACC84E4F8121DCEFD
:102500008091850291E089278093850216CE8BEC1D
:1025100093E00C94D3071F93FC0199278827BC01F3
:10252000E89411911032E9F3193010F01E30C8F31D
:102530001B3251F01D3249F4689406C00E94B21259
:10254000610F711D811D911D119110531A30B0F34F
:102550003EF490958095709561957F4F8F4F9F4F7A
:102560001F910895592F482F372F262F660F771F59
:10257000881F991F660F771F881F991F620F731F8F
:10258000841F951F660F771F881F991F08950E944B
:10259000091308F481E00895E89409C097FB3EF41C
:1025A00090958095709561957F4F8F4F9F4F9923A0
:1025B000A9F0F92F96E9BB279395F695879577951E
:1025C0006795B795F111F8CFFAF4BB0F11F460FFDE
:1025D0001BC06F5F7F4F8F4F9F4F16C0882311F036
:1025E00096E911C0772321F09EE8872F762F05C04A
:1025F000662371F096E8862F70E060E02AF09A95E5
:10260000660F771F881FDAF7880F9695879597F9D9
:102610000895990F0008550FAA0BE0E8FEEF161673
:102620001706E807F907C0F012161306E407F507C6
:1026300098F0621B730B840B950B39F40A2661F03A
:10264000232B242B252B21F408950A2609F4A140DD
:10265000A6958FEF811D811D08950E9440130C9453
:10266000B1130E94A31338F00E94AA1320F09523FF
:1026700011F00C949A130C94A01311240C94E513EC
:102680000E94C21370F3959FC1F3950F50E0551F40
:10269000629FF001729FBB27F00DB11D639FAA27B7
:1026A000F00DB11DAA1F649F6627B00DA11D661F06
:1026B000829F2227B00DA11D621F739FB00DA11D27
:1026C000621F839FA00D611D221F749F3327A00DE1
:1026D000611D231F849F600D211D822F762F6A2F7D
:1026E00011249F5750409AF0F1F088234AF0EE0FE2
:1026F000FF1FBB1F661F771F881F91505040A9F70F
:102700009E3F510580F00C949A130C94E5135F3FA3
:10271000E4F3983ED4F3869577956795B795F7954A
:10272000E7959F5FC1F7FE2B880F911D96958795C2
:1027300097F9089597F99F6780E870E060E0089541
:102740009FEF80EC089500240A94161617061806C9
:102750000906089500240A941216130614060506A5
:102760000895092E0394000C11F4882352F0BB0F36
:1027700040F4BF2B11F460FF04C06F5F7F4F8F4F99
:102780009F4F089557FD9058440F551F59F05F3FD4
:1027900071F04795880F97FB991F61F09F3F79F083
:1027A00087950895121613061406551FF2CF469505
:1027B000F1DF08C0161617061806991FF1CF869587
:1027C0007105610508940895E894BB27662777276B
:1027D000CB0197F908955058BB27AA270E940314EC
:1027E0000C94B1130E94A31338F00E94AA1320F096
:1027F00039F49F3F19F426F40C94A0130EF4E095DD
:10280000E7FB0C949A13E92F0E94C21358F3BA17EE
:10281000620773078407950720F079F4A6F50C94F6
:10282000E4130EF4E0950B2EBA2FA02D0B01B90185
:1028300090010C01CA01A0011124FF27591B99F036
:10284000593F50F4503E68F11A16F040A22F232F42
:10285000342F4427585FF3CF469537952795A79592
:10286000F0405395C9F77EF41F16BA0B620B730B39
:10287000840BBAF09150A1F0FF0FBB1F661F771FAA
:10288000881FC2F70EC0BA0F621F731F841F48F45F
:10289000879577956795B795F7959E3F08F0B0CFE8
:1028A0009395880F08F09927EE0F979587950895CF
:1028B0000E946C140C94B1130E94AA1358F00E9449
:1028C000A31340F029F45F3F29F00C949A1351119F
:1028D0000C94E5130C94A0130E94C21368F399237F
:1028E000B1F3552391F3951B550BBB27AA2762170C
:1028F0007307840738F09F5F5F4F220F331F441F19
:10290000AA1FA9F335D00E2E3AF0E0E832D091504C
:102910005040E695001CCAF72BD0FE2F29D0660F39
:10292000771F881FBB1F261737074807AB07B0E87C
:1029300009F0BB0B802DBF01FF2793585F4F3AF082
:102940009E3F510578F00C949A130C94E5135F3F69
:10295000E4F3983ED4F3869577956795B795F79508
:102960009F5FC9F7880F911D9695879597F90895F0
:10297000E1E0660F771F881FBB1F6217730784078C
:10298000BA0720F0621B730B840BBA0BEE1F88F79B
:10299000E09508950E94CA1388F09F5798F0B92FC8
:1029A0009927B751B0F0E1F0660F771F881F991F84
:1029B0001AF0BA95C9F714C0B13091F00E94E4132F
:1029C000B1E008950C94E413672F782F8827B85F3F
:1029D00039F0B93FCCF3869577956795B395D9F7DC
:1029E0003EF490958095709561957F4F8F4F9F4FE6
:1029F00008950E94091308F48FEF08950E940913A7
:102A0000880B990B0895A1E21A2EAA1BBB1BFD018E
:102A10000DC0AA1FBB1FEE1FFF1FA217B307E407BD
:102A2000F50720F0A21BB30BE40BF50B661F771F15
:102A3000881F991F1A9469F76095709580959095F5
:102A40009B01AC01BD01CF010895EE0FFF1F881F50
:102A50008BBF0790F691E02D19940F931F93CF939E
:102A6000DF938230910510F482E090E0E091E10381
:102A7000F091E20330E020E0B0E0A0E0309799F47C
:102A80002115310509F44AC0281B390B24303105C2
:102A9000D8F58A819B816115710589F1FB019383CA
:102AA0008283FE0111C04081518102811381481748
:102AB0005907E0F04817590799F4109761F01296FA
:102AC0000C93129713961C933296CF01DF91CF91FE
:102AD0001F910F9108950093E1031093E203F4CF47
:102AE0002115310551F04217530738F0A901DB01D8
:102AF0009A01BD01DF01F801C1CFEF01F9CF909339
:102B0000E2038093E103CDCFFE01E20FF31F819337
:102B100091932250310939832883D7CF2091DF0345
:102B20003091E003232B41F420911C0230911D02CF
:102B30003093E0032093DF0320911A0230911B02AF
:102B40002115310541F42DB73EB740911E02509139
:102B50001F02241B350BE091DF03F091E003E21725
:102B6000F307A0F42E1B3F0B2817390778F0AC01B0
:102B70004E5F5F4F2417350748F04E0F5F1F50938D
:102B8000E0034093DF03819391939FCFF0E0E0E077
:102B90009CCFCF93DF930097E9F0FC01329713822B
:102BA0001282A091E103B091E203ED0130E020E058
:102BB0001097A1F420813181820F931F2091DF03B0
:102BC0003091E0032817390709F061C0F093E00362
:102BD000E093DF03DF91CF910895EA01CE17DF077D
:102BE000E8F54A815B819E0141155105B1F7E90184
:102BF000FB83EA8349915991C40FD51FEC17FD0758
:102C000061F4808191810296840F951FE901998377
:102C10008883828193819B838A83F0E0E0E012962F
:102C20008D919C9113970097B9F52D913C91119737
:102C3000CD010296820F931F2091DF033091E003B4
:102C40002817390739F6309751F51092E2031092A0
:102C5000E103B093E003A093DF03BCCFD383C2832F
:102C600040815181840F951FC817D90761F44E5FC9
:102C70005F4F88819981480F591F518340838A8112
:102C80009B81938382832115310509F0B0CFF093A6
:102C9000E203E093E1039ECFFD01DC01C0CF13828C
:102CA0001282D7CF4F925F926F927F928F929F92B4
:102CB000AF92BF92CF92DF92EF92FF920F931F934A
:102CC000CF93DF938C01009799F4CB01DF91CF91E3
:102CD0001F910F91FF90EF90DF90CF90BF90AF903A
:102CE0009F908F907F906F905F904F900C942D15D8
:102CF000FC01E60FF71F9C0122503109E217F30790
:102D000008F4AEC0D901CD91DC911197C617D70751
:102D100020F1C530D10578F0CE01049786179707CA
:102D200050F0C61BD70B2297C193D1936D937C9320
:102D3000CF010E94C915C801DF91CF911F910F915A
:102D4000FF90EF90DF90CF90BF90AF909F908F90CB
:102D50007F906F905F904F9008955B01AC1ABD0A11
:102D60004C018C0E9D1EA091E103B091E203512C09
:102D7000412CF12CE12C109731F58091DF039091DB
:102D8000E0038815990509F05CC04616570608F05F
:102D900058C080911A0290911B02009741F48DB7A0
:102DA0009EB740911E0250911F02841B950BE8179D
:102DB000F90708F055C0F093E003E093DF03F90151
:102DC00071836083B8CF8D919C91119712966C900E
:102DD000129713967C901397A815B90559F56C01B5
:102DE00042E0C40ED11CCA14DB0420F1AC014A1924
:102DF0005B09DA011296159780F062827382518323
:102E00004083D9016D937C93E114F10471F0D701F3
:102E10001396FC93EE9312978ECF22968C0F9D1FE4
:102E2000F90191838083F301EFCFF093E203E09304
:102E3000E10381CF4816590608F42C017D01D30126
:102E40009ACFCB010E942D157C01009749F0AE016D
:102E5000B8010E943317C8010E94C91587016BCFC2
:102E600010E000E068CFFB01DC0102C001900D9290
:102E700041505040D8F70895FB01DC0101900D92BC
:102E80000020E1F7089511E0C4E4D1E000E006C0BD
:102E9000802FFE010E9425152196011DC534D10702
:0A2EA00080E00807A9F7F894FFCFBF
:102EAA00FF01424344453E3F4041313233413435CC
:102EBA00364237383943463045440000E303800040
:102ECA0000000000A1020B023802EE02690247026A
:102EDA005B0200000000F3050B029C049B04000047
:102EEA00000040040004CF036E616E00696E660044
:102EFA006F76660030003A0020202020000D0A007C
:00000001FF
